:100000000C942A000C94CB0B0C94CB0B0C94CB0BC4
:100010000C94CB0B0C94CB0B0C94CB0B0C94CB0B08
:100020000C94CB0B0C94CB0B0C94CB0B0C94CB0BF8
:100030000C94CB0B0C94CB0B0C94CB0B0C94CB0BE8
:100040000C94CB0B0C94CB0B0C94CB0B0C94CB0BD8
:100050000C94CB0B11241FBECFE5D8E0DEBFCDBF83
:0C0060000E9436000C94900BF894FFCF27
:10006C000F931F93CF93DF93CDB7DEB7CC5AD10943
:10007C000FB6F894DEBF0FBECDBF20EA36E841E0E4
:10008C0050E060E074E284EF90E00E94BA090E94B4
:10009C002B0A80E090E0A8ECB2E48F8B988FA98FAC
:1000AC00BA8F20E030E04AE755E46F89788D898D6E
:1000BC009A8D0E94C40BDC01CB018B8F9C8FAD8F72
:1000CC00BE8F20E030E040E85FE36B8D7C8D8D8D42
:1000DC009E8D0E94B60B88232CF481E090E098A3AF
:1000EC008F8F3FC020E03FEF4FE757E46B8D7C8D47
:1000FC008D8D9E8D0E94BB0B18164CF520E030E0C8
:10010C0040E251E46F89788D898D9A8D0E94C40BE1
:10011C00DC01CB01BC01CD010E94FC09DC01CB014F
:10012C0098A38F8F0FC080E991E09AA389A389A12E
:10013C009AA10197F1F79AA389A38F8D98A10197A2
:10014C0098A38F8F8F8D98A1892B69F714C06B8D15
:10015C007C8D8D8D9E8D0E94FC09DC01CB0198A3BA
:10016C008F8F8F8D98A19CA38BA38BA19CA10197A2
:10017C00F1F79CA38BA30E94340B0E94490B80EDDA
:10018C000E94BB0A80E00E94BB0A0E94490B81EDD1
:10019C000E94BB0A198210C08981082F10E00E94AE
:1001AC00F10A282FCE0181569F4F800F911FFC0121
:1001BC00208389818F5F89838981863068F30E94CF
:1001CC00080B282FCE0181569F4FFC0126830E94DD
:1001DC00D907CE0181569F4FFC0180818F770E94F9
:1001EC001F0B282FCE018A559F4FFC012083CE0177
:1001FC0081569F4FFC0181818F770E941F0B282F06
:10020C00CE018A559F4FFC012183CE0181569F4F11
:10021C00FC018281882F90E080749927892B79F0DA
:10022C00CE0181569F4FFC0182818F710E941F0B62
:10023C00282FCE018A559F4FFC0122830EC0CE0180
:10024C0081569F4FFC0182818F730E941F0B282FB8
:10025C00CE018A559F4FFC012283CE0181569F4FC0
:10026C00FC01838187700E941F0B282FCE018A55B9
:10027C009F4FFC012383CE0181569F4FFC0184814B
:10028C008F730E941F0B282FCE018A559F4FFC01A4
:10029C002483CE0181569F4FFC0185818F710E9472
:1002AC001F0B282FCE018A559F4FFC012583CE01B1
:1002BC0081569F4FFC0186810E941F0B282FCE0177
:1002CC008A559F4FFC0126830E945D0B80E090E0D5
:1002DC00A0EAB1E48B879C87AD87BE878E010F5B4C
:1002EC001F4F2BEA3AEA4AEA50E46B857C858D85F0
:1002FC009E850E94C40BDC01CB01F80180839183A5
:10030C00A283B3838E010B5B1F4F20E030E040E8EB
:10031C0050E46B857C858D859E850E94C40BDC0129
:10032C00CB01F80180839183A283B383CE018F5BD1
:10033C009F4F20E030E040E85FE3FC016081718179
:10034C00828193810E94B60B88233CF4CE01875B9B
:10035C009F4F21E0FC0120832CC1CE018B5B9F4F72
:10036C0020E03FEF4FE757E4FC016081718182810F
:10037C0093810E94BB0B18160CF0CDC020E030E02E
:10038C004AE754E46B857C858D859E850E94C00B65
:10039C00DC01CB019E01265B3F4FF90180839183E9
:1003AC00A283B3838E01025B1F4FCE01865B9F4FEE
:1003BC0020E030E04AE755E4FC01608171818281E4
:1003CC0093810E94C40BDC01CB01F80180839183E3
:1003DC00A283B383CE01825B9F4F20E030E040E8E4
:1003EC005FE3FC0160817181828193810E94B60B75
:1003FC0088234CF4CE018E5A9F4F21E030E0FC0153
:10040C00318320836DC0CE01825B9F4F20E03FEF94
:10041C004FE757E4FC0160817181828193810E94D6
:10042C00BB0B18160CF04AC0CE01865B9F4F20E028
:10043C0030E040E251E4FC01608171818281938162
:10044C000E94C40BDC01CB018E010E5A1F4FBC0164
:10045C00CD010E94FC09DC01CB01F8019183808362
:10046C0024C0CE018C5A9F4F20E931E0FC0131832E
:10047C002083CE018C5A9F4FFC0180819181019782
:10048C00F1F79E012C5A3F4FF90191838083CE01E5
:10049C008E5A9F4F9E012E5A3F4FF9012081318178
:1004AC0021503109FC0131832083CE018E5A9F4F9C
:1004BC00FC0180819181892BA1F67BC08E010E5AA3
:1004CC001F4FCE01825B9F4FFC0160817181828145
:1004DC0093810E94FC09DC01CB01F801918380839C
:1004EC00CE018A5A9F4F9E012E5A3F4FF90120810F
:1004FC003181FC0131832083CE018A5A9F4FFC014C
:10050C00808191810197F1F79E012A5A3F4FF901A1
:10051C00918380834EC0CE018F5B9F4F20E030E0F3
:10052C004FE753E4FC0160817181828193810E94C9
:10053C00BB0B18166CF58E01085A1F4FCE018B5B46
:10054C009F4FFC0160817181828193810E94FC0923
:10055C00DC01CB01F80191838083CE01865A9F4F39
:10056C009E01285A3F4FF90120813181FC013183D2
:10057C002083CE01865A9F4FFC0180819181019787
:10058C00F1F79E01265A3F4FF9019183808328C0D1
:10059C008E01075B1F4FCE018F5B9F4FFC0160816B
:1005AC007181828193810E94FC09DC01CB01F801ED
:1005BC008083CE01845A9F4F9E01275B3F4FF901E8
:1005CC002081FC012083CE01845A9F4FFC01808145
:1005DC00282F2A95F1F7CE01845A9F4FFC012083D6
:1005EC008AEA0E94D70A80E090E0A8E4B2E48B8308
:1005FC009C83AD83BE832BEA3AEA4AEA50E46B81D2
:10060C007C818D819E810E94C40BDC01CB018DA36A
:10061C009EA3AFA3B8A720E030E040E850E46B8184
:10062C007C818D819E810E94C40BDC01CB0189A74A
:10063C009AA7ABA7BCA720E030E040E85FE36DA130
:10064C007EA18FA198A50E94B60B88231CF481E093
:10065C008DA7B2C020E03FEF4FE757E469A57AA51C
:10066C008BA59CA50E94BB0B18160CF07BC020E040
:10067C0030E04AE754E46B817C818D819E810E943D
:10068C00C00BDC01CB018EA79FA7A8ABB9AB20E0B8
:10069C0030E04AE755E46EA57FA588A999A90E9488
:1006AC00C40BDC01CB018AAB9BABACABBDAB20E08C
:1006BC0030E040E85FE36AA97BA98CA99DA90E9460
:1006CC00B60B88232CF481E090E09FAB8EAB3FC03F
:1006DC0020E03FEF4FE757E46AA97BA98CA99DA9BD
:1006EC000E94BB0B18164CF520E030E040E251E4C0
:1006FC006EA57FA588A999A90E94C40BDC01CB012A
:10070C00BC01CD010E94FC09DC01CB019FAB8EAB7F
:10071C000FC080E991E099AF88AF88AD99AD019792
:10072C00F1F799AF88AF8EA99FA901979FAB8EABBC
:10073C008EA99FA9892B69F73FC06AA97BA98CA9AF
:10074C009DA90E94FC09DC01CB019FAB8EAB8EA94D
:10075C009FA99BAF8AAF8AAD9BAD0197F1F79BAF79
:10076C008AAF2AC020E030E04FE753E46DA17EA1B0
:10077C008FA198A50E94BB0B1816ACF469A57AA59D
:10078C008BA59CA50E94FC09DC01CB019DAF8CAF15
:10079C008CAD9DAD9FAF8EAF8EAD9FAD0197F1F738
:1007AC009FAF8EAF1CC06DA17EA18FA198A50E949A
:1007BC00FC09DC01CB018DA72DA5CE01805C9F4FE0
:1007CC00FC012083CE01805C9F4FFC018081282F8F
:1007DC002A95F1F7CE01805C9F4FFC0120831A8291
:1007EC0099C18A81882F90E09E012A553F4F820F34
:1007FC00931FFC0180810E94D70A80E090E0A8E45E
:10080C00B2E48F839887A987BA878E01035A1F4F4A
:10081C002BEA3AEA4AEA50E46F81788589859A8511
:10082C000E94C40BDC01CB01F80180839183A2836D
:10083C00B3838E010F591F4F20E030E040E850E4A5
:10084C006F81788589859A850E94C40BDC01CB0168
:10085C00F80180839183A283B383CE01835A9F4F87
:10086C0020E030E040E85FE3FC016081718182812F
:10087C0093810E94B60B88233CF4CE018B599F4F79
:10088C0021E0FC0120832CC1CE018F599F4F20E029
:10089C003FEF4FE757E4FC016081718182819381C6
:1008AC000E94BB0B18160CF0CDC020E030E04AE7DC
:1008BC0054E46F81788589859A850E94C00BDC0190
:1008CC00CB019E012A593F4FF90180839183A2836A
:1008DC00B3838E0106591F4FCE018A599F4F20E0DA
:1008EC0030E04AE755E4FC0160817181828193819B
:1008FC000E94C40BDC01CB01F80180839183A2839D
:10090C00B383CE0186599F4F20E030E040E85FE38F
:10091C00FC0160817181828193810E94B60B8823D6
:10092C004CF4CE0182599F4F21E030E0FC01318321
:10093C0020836DC0CE0186599F4F20E03FEF4FE7DB
:10094C0057E4FC0160817181828193810E94BB0B11
:10095C0018160CF04AC0CE018A599F4F20E030E0A7
:10096C0040E251E4FC0160817181828193810E949B
:10097C00C40BDC01CB018E0102591F4FBC01CD0110
:10098C000E94FC09DC01CB01F8019183808324C017
:10099C00CE0180599F4F20E931E0FC013183208347
:1009AC00CE0180599F4FFC01808191810197F1F715
:1009BC009E0120593F4FF90191838083CE018259CA
:1009CC009F4F9E0122593F4FF901208131812150C7
:1009DC003109FC0131832083CE0182599F4FFC01E8
:1009EC0080819181892BA1F67BC08E0102591F4F0A
:1009FC00CE0186599F4FFC01608171818281938168
:100A0C000E94FC09DC01CB01F80191838083CE01AB
:100A1C008E589F4F9E0122593F4FF9012081318101
:100A2C00FC0131832083CE018E589F4FFC018081C5
:100A3C0091810197F1F79E012E583F4FF901918357
:100A4C0080834EC0CE01835A9F4F20E030E04FE7A9
:100A5C0053E4FC0160817181828193810E94BB0B04
:100A6C0018166CF58E010C581F4FCE018F599F4FE5
:100A7C00FC0160817181828193810E94FC09DC01FF
:100A8C00CB01F80191838083CE018A589F4F9E0140
:100A9C002C583F4FF90120813181FC013183208397
:100AAC00CE018A589F4FFC01808191810197F1F70B
:100ABC009E012A583F4FF9019183808328C08E01F3
:100ACC000B591F4FCE01835A9F4FFC0160817181DE
:100ADC00828193810E94FC09DC01CB01F8018083A7
:100AEC00CE0188589F4F9E012B593F4FF901208111
:100AFC00FC012083CE0188589F4FFC018081282F58
:100B0C002A95F1F7CE0188589F4FFC0120838A81EA
:100B1C008F5F8A838A81873008F463CE80E090E00F
:100B2C00A0EAB1E48B8B9C8BAD8BBE8B8E010D57E9
:100B3C001F4F2BEA3AEA4AEA50E46B897C898D898B
:100B4C009E890E94C40BDC01CB01F8018083918348
:100B5C00A283B3838E0109571F4F20E030E040E899
:100B6C0050E46B897C898D899E890E94C40BDC01C1
:100B7C00CB01F80180839183A283B383CE018D577F
:100B8C009F4F20E030E040E85FE3FC016081718121
:100B9C00828193810E94B60B88233CF4CE01855749
:100BAC009F4F21E0FC0120832CC1CE0189579F4F20
:100BBC0020E03FEF4FE757E4FC01608171818281B7
:100BCC0093810E94BB0B18160CF0CDC020E030E0D6
:100BDC004AE754E46B897C898D899E890E94C00BFD
:100BEC00DC01CB019E0124573F4FF9018083918397
:100BFC00A283B3838E0100571F4FCE0184579F4FA2
:100C0C0020E030E04AE755E4FC016081718182818B
:100C1C0093810E94C40BDC01CB01F801808391838A
:100C2C00A283B383CE0180579F4F20E030E040E891
:100C3C005FE3FC0160817181828193810E94B60B1C
:100C4C0088234CF4CE018C569F4F21E030E0FC0100
:100C5C00318320836DC0CE0180579F4F20E03FEF42
:100C6C004FE757E4FC0160817181828193810E947E
:100C7C00BB0B18160CF04AC0CE0184579F4F20E0D6
:100C8C0030E040E251E4FC0160817181828193810A
:100C9C000E94C40BDC01CB018E010C561F4FBC0112
:100CAC00CD010E94FC09DC01CB01F801918380830A
:100CBC0024C0CE018A569F4F20E931E0FC013183DC
:100CCC002083CE018A569F4FFC0180819181019730
:100CDC00F1F79E012A563F4FF90191838083CE0193
:100CEC008C569F4F9E012C563F4FF901208131812C
:100CFC0021503109FC0131832083CE018C569F4F4A
:100D0C00FC0180819181892BA1F67BC08E010C5650
:100D1C001F4FCE0180579F4FFC01608171818281F2
:100D2C0093810E94FC09DC01CB01F8019183808343
:100D3C00CE0188569F4F9E012C563F4FF9012081C2
:100D4C003181FC0131832083CE0188569F4FFC01F9
:100D5C00808191810197F1F79E0128563F4FF9014F
:100D6C00918380834EC0CE018D579F4F20E030E0A1
:100D7C004FE753E4FC0160817181828193810E9471
:100D8C00BB0B18166CF58E0106561F4FCE018957FA
:100D9C009F4FFC0160817181828193810E94FC09CB
:100DAC00DC01CB01F80191838083CE0184569F4FE7
:100DBC009E0126563F4FF90120813181FC01318380
:100DCC002083CE0184569F4FFC0180819181019735
:100DDC00F1F79E0124563F4FF9019183808328C07F
:100DEC008E0105571F4FCE018D579F4FFC0160811F
:100DFC007181828193810E94FC09DC01CB01F80195
:100E0C008083CE0182569F4F9E0125573F4FF9019B
:100E1C002081FC012083CE0182569F4FFC018081F2
:100E2C00282F2A95F1F7CE0182569F4FFC01208383
:100E3C000E946E0B80E090E0AAE7B4E48F87988B59
:100E4C00A98BBA8B8E0107581F4F20E030E04AE780
:100E5C0055E46F85788989899A890E94C40BDC01D5
:100E6C00CB01F80180839183A283B383CE01875891
:100E7C009F4F20E030E040E85FE3FC01608171812E
:100E8C00828193810E94B60B88234CF4CE01835847
:100E9C009F4F21E030E0FC013183208369C0CE01FB
:100EAC0087589F4F20E03FEF4FE757E4FC016081EC
:100EBC007181828193810E94BB0B18160CF046C085
:100ECC0020E030E040E251E46F85788989899A8985
:100EDC000E94C40BDC01CB018E0103581F4FBC01D7
:100EEC00CD010E94FC09DC01CB01F80191838083C8
:100EFC0024C0CE0181589F4F20E931E0FC013183A1
:100F0C002083CE0181589F4FFC01808191810197F4
:100F1C00F1F79E0121583F4FF90191838083CE0157
:100F2C0083589F4F9E0123583F4FF90120813181F7
:100F3C0021503109FC0131832083CE0183589F4F0E
:100F4C00FC0180819181892BA1F62CC08E01035864
:100F5C001F4FCE0187589F4FFC01608171818281A8
:100F6C0093810E94FC09DC01CB01F8019183808301
:100F7C00CE018F579F4F9E0123583F4FF90120817F
:100F8C003181FC0131832083CE018F579F4FFC01AF
:100F9C00808191810197F1F79E012F573F4FF90105
:060FAC0091838083EAC876
:100FB200CF93DF93CDB7DEB7A0970FB6F894DEBF1D
:100FC2000FBECDBF86E590E024E9FC01208380E0DE
:100FD20090E0A8E4B2E489839A83AB83BC832BEAD2
:100FE2003AEA4AEA5EE369817A818B819C810E94B6
:100FF200C40BDC01CB018D839E83AF83B88720E0D5
:1010020030E040E85EE369817A818B819C810E94B5
:10101200C40BDC01CB0189879A87AB87BC8720E0B0
:1010220030E040E85FE36D817E818F8198850E9488
:10103200B60B88231CF481E08D87B2C020E03FEF1D
:101042004FE757E469857A858B859C850E94BB0BA7
:1010520018160CF07BC020E030E04AE754E46981C6
:101062007A818B819C810E94C00BDC01CB018E872F
:101072009F87A88BB98B20E030E04AE753E46E8566
:101082007F85888999890E94C40BDC01CB018A8BF8
:101092009B8BAC8BBD8B20E030E040E85FE36A893C
:1010A2007B898C899D890E94B60B88232CF481E070
:1010B20090E09F8B8E8B3FC020E03FEF4FE757E4DD
:1010C2006A897B898C899D890E94BB0B18164CF515
:1010D20020E030E040E251E46E857F85888999897D
:1010E2000E94C40BDC01CB01BC01CD010E94FC09B2
:1010F200DC01CB019F8B8E8B0FC089E190E0998F31
:10110200888F888D998D0197F1F7998F888F8E89B5
:101112009F8901979F8B8E8B8E899F89892B69F777
:101122003FC06A897B898C899D890E94FC09DC0108
:10113200CB019F8B8E8B8E899F899B8F8A8F8A8D05
:101142009B8D0197F1F79B8F8A8F2AC020E030E0B8
:101152004FE753E46D817E818F8198850E94BB0B9E
:101162001816ACF469857A858B859C850E94FC09EA
:10117200DC01CB019D8F8C8F8C8D9D8D9F8F8E8FEF
:101182008E8D9F8D0197F1F79F8F8E8F0FC06D818E
:101192007E818F8198850E94FC09DC01CB018D87BD
:1011A2008D8588A388A18A95F1F788A30000A0966F
:1011B2000FB6F894DEBF0FBECDBFDF91CF91089579
:1011C20010C00E94A20B58F00E949B0B40F029F421
:1011D2005F3F29F00C94B00B51110C94AA0B0C94A4
:1011E200C80B0E94990A68F39923B1F3552391F32E
:1011F200951B550BBB27AA2762177307840738F084
:101202009F5F5F4F220F331F441FAA1FA9F335D0E0
:101212000E2E3AF0E0E832D091505040E695001C94
:10122200CAF72BD0FE2F29D0660F771F881FBB1F4E
:10123200261737074807AB07B0E809F0BB0B802D2C
:10124200BF01FF2793585F4F3AF09E3F510578F058
:101252000C94B00B0C94AA0B5F3FE4F3983ED4F3CA
:10126200869577956795B795F7959F5FC9F7880F2C
:10127200911D9695879597F90895E1E0660F771F7E
:10128200881FBB1F621773078407BA0720F0621B0F
:0E129200730B840BBA0BEE1F88F7E0950895DE
:1012A0000FC00E949B0B38F00E94A20B20F09523E8
:1012B00011F00C94B00B0C94C80B11240C94AA0BD5
:1012C0000E94990A70F3959FC1F3950F50E0551F46
:1012D000629FF001729FBB27F00DB11D639FAA278B
:1012E000F00DB11DAA1F649F6627B00DA11D661FDA
:1012F000829F2227B00DA11D621F739FB00DA11DFB
:10130000621F839FA00D611D221F749F3327A00DB4
:10131000611D231F849F600D211D822F762F6A2F50
:1013200011249F5750409AF0F1F088234AF0EE0FB5
:10133000FF1FBB1F661F771F881F91505040A9F7E2
:101340009E3F510580F00C94B00B0C94AA0B5F3FAC
:10135000E4F3983ED4F3869577956795B795F7951E
:10136000E7959F5FC1F7FE2B880F911D9695879596
:0413700097F908954C
:101374000F931F93CF93DF93CDB7DEB728970FB6A4
:10138400F894DEBF0FBECDBF69837A838B839C83C1
:101394002D833E834F83588781E290E0FC011082C5
:1013A40000E210E089819A81AB81BC812D813E816C
:1013B4004F815885BC01CD010E94770ADA01C90129
:1013C4004097A109B109B695A79597958795F80116
:1013D400808386E590E024E0FC01208300002896C9
:1013E4000FB6F894DEBF0FBECDBFDF91CF911F9132
:0413F4000F910895B8
:1013F8000E94A10A88F09F5798F0B92F9927B751F2
:10140800B0F0E1F0660F771F881F991F1AF0BA95A0
:10141800C9F714C0B13091F00E94A90BB1E008954A
:101428000C94A90B672F782F8827B85F39F0B93F3C
:10143800CCF3869577956795B395D9F73EF4909553
:0E1448008095709561957F4F8F4F9F4F08954F
:10145600CF93DF93CDB7DEB787E390E027E330E0A5
:10146600F9012081206BFC01208387E390E027E3CC
:1014760030E0F90120812F7BFC01208388E390E096
:1014860028E330E0F90120812061FC0120838DE210
:1014960090E021E5FC0120830000DF91CF910895C3
:1014A600990F0008550FAA0BE0E8FEEF161617066F
:1014B600E807F907C0F012161306E407F50798F0D7
:1014C600621B730B840B950B39F40A2661F0232BF0
:1014D600242B252B21F408950A2609F4A140A6956C
:0814E6008FEF811D811D0895A7
:1014EE00A1E21A2EAA1BBB1BFD010DC0AA1FBB1F1A
:1014FE00EE1FFF1FA217B307E407F50720F0A21B8C
:10150E00B30BE40BF50B661F771F881F991F1A94F8
:10151E0069F760957095809590959B01AC01BD0122
:04152E00CF0108954C
:1015320057FD9058440F551F59F05F3F71F0479582
:10154200880F97FB991F61F09F3F79F08795089567
:10155200121613061406551FF2CF4695F1DF08C086
:10156200161617061806991FF1CF869571056105A3
:04157200089408953C
:10157600CF93DF930F92CDB7DEB7898383E290E0F6
:101586002981FC01208386E590E024E8FC01208384
:10159600000086E590E0FC0180818823D4F70000F6
:0815A6000F90DF91CF91089531
:1015AE00CF93DF930F92CDB7DEB789838FE290E0B2
:1015BE002981FC01208300008EE290E0FC018081F5
:1015CE008823D4F78FE290E0FC0180810F90DF91A9
:0415DE00CF9108950C
:1015E200CF93DF93CDB7DEB786E590E024ECFC0124
:1015F2002083000086E590E0FC0180818823D4F7F7
:0E16020083E290E0FC018081DF91CF9108959A
:10161000CF93DF93CDB7DEB786E590E024E8FC01F9
:101620002083000086E590E0FC0180818823D4F7C8
:0E16300083E290E0FC018081DF91CF9108956C
:10163E00CF93DF930F92CDB7DEB7898389818295E1
:10164E008F70880F982F990F990F980F89818F702F
:0A165E00890F0F90DF91CF910895DE
:10166800CF93DF93CDB7DEB70E94490B80ED0E9480
:10167800BB0A80E00E94BB0A80E00E94BB0A0E946D
:0A168800D9070000DF91CF9108950B
:10169200CF93DF93CDB7DEB786E590E024EAFC0175
:1016A2002083000086E590E0FC0180818823D4F746
:0816B2000000DF91CF910895C3
:1016BA00CF93DF93CDB7DEB788E390E028E330E03D
:1016CA00F90120812F7EFC0120830000DF91CF9158
:0216DA00089571
:1016DC00CF93DF93CDB7DEB788E390E028E330E01B
:1016EC00F90120812061FC0120830000DF91CF9162
:0216FC0008954F
:1016FE00092E0394000C11F4882352F0BB0F40F412
:10170E00BF2B11F460FF04C06F5F7F4F8F4F9F4F51
:02171E0008952C
:10172000EC010E94D00B0E94CF0BCE010E94D10B86
:06173000CE010E94CD0B6A
:0E17360000240A9416161706180609060895D0
:0E17440000240A9412161306140605060895D2
:0E175200E894BB2766277727CB0197F9089507
:0C17600097F99F6780E870E060E0089552
:0A176C000E94530A08F481E008957A
:0A1776000E94530A08F48FEF089553
:081780000E94E1080C947F0BAC
:081788000E9450090C947F0B34
:061790009FEF80EC0895BC
:041796000C940000AF
:04179A000E94340075
:02179E000895AC
:0217A0000895AA
:0217A2000895A8
:00000001FF
