:100000000C942E000C94F1010C94F1010C94F1016C
:100010000C94F1010C94F1010C94F1010C94F10198
:100020000C94F1010C94F1010C94F1010C94F10188
:100030000C94F1010C94F1010C94F1010C94F10178
:100040000C94F1010C94F1010C94F1010C94F10168
:100050000C94F101006000930003F00011241FBE16
:10006000CFE5D8E0DEBFCDBFE4E5F0E040E017C06B
:10007000B591A59135912591059107FD0CC09591FC
:100080008591EF01F92FE82F05900D92A217B30784
:10009000D9F7FE0104C01D92A217B307E1F7EB35B3
:1000A000F40731F70E9458000C94E601F894FFCF52
:1000B0000F931F93CF93DF93CDB7DEB729970FB67A
:1000C000F894DEBF0FBECDBF20E034E244EF50E035
:1000D00060E875E280E090E00E94D2000E94730127
:1000E00080E690E00E949201000086E390E0FC012F
:1000F0008081882F90E080719927892BB1F78FEF4D
:100100000E94CC018A838A818A3A71F7198210C0D1
:100110008981082F10E08FEF0E94CC01282FCE019B
:100120000396800F911FFC01208389818F5F898353
:100130008981873068F3000086E390E0FC018081CC
:10014000882F90E080719927892BB1F38BE790E09D
:100150000E9492018D810E9428018AE30E94B101D0
:100160008C810E9428018AE30E94B1018B810E9448
:10017000280182E890E00E9492018F810E9428016C
:100180008FE20E94B10188850E9428018CE890E0EE
:100190000E94920189850E94280180E990E00E94D6
:0401A0009201A2CF57
:1001A400CF93DF93CDB7DEB72A970FB6F894DEBFAF
:1001B4000FBECDBF6B837C838D839E832F83388753
:1001C40049875A878B819C81AD81BE81880F991F95
:1001D400AA1FBB1F880F991FAA1FBB1F880F991F37
:1001E400AA1FBB1F880F991FAA1FBB1F9C01AD012B
:1001F4008F819885A985BA85BC01CD010E945101E2
:10020400DA01C90101979A83898380E490E0298106
:100214003A81232F3327FC01208389E290E029814E
:10022400FC0120838AE290E028E1FC01208380E441
:1002340090E026E8FC01208300002A960FB6F8948B
:0C024400DEBF0FBECDBFDF91CF9108954B
:10025000CF93DF930F92CDB7DEB7898399818DEC71
:10026000989F812D1124869586958695805D0E94A4
:10027000B10199818DEC989F812D112486958695E9
:100280008695880F282F220F220F820F292F281BD7
:10029000822F805D0E94B10100000F90DF91CF910D
:0202A0000895BF
:1002A200A1E21A2EAA1BBB1BFD010DC0AA1FBB1F78
:1002B200EE1FFF1FA217B307E407F50720F0A21BEA
:1002C200B30BE40BF50B661F771F881F991F1A9457
:1002D20069F760957095809590959B01AC01BD0181
:0402E200CF010895AB
:1002E600CF93DF93CDB7DEB787E390E027E330E027
:1002F600F90120812064FC01208387E390E027E355
:1003060030E0F90120812F74FC0120838DE290E01A
:0E03160020E4FC0120830000DF91CF910895C8
:10032400CF93DF9300D0CDB7DEB79A8389830BC018
:1003340089819A819C012F5F3F4F3A832983FC0175
:1003440080810E94B10189819A81FC018081882386
:0E03540079F700000F900F90DF91CF91089580
:10036200CF93DF930F92CDB7DEB7898300008BE284
:1003720090E0FC018081882F90E080729927892B80
:10038200B1F38CE290E02981FC01208300000F9000
:06039200DF91CF910895F8
:10039800CF93DF930F92CDB7DEB789838FE290E0DA
:1003A8002981FC01208300008EE290E0FC0180811D
:1003B8008823D4F78FE290E0FC0180810F90DF91D1
:0403C800CF91089534
:1003CC00EC010E94F6010E94F501CE010E94F7019A
:0603DC00CE010E94F301B6
:0403E2000C94000077
:0403E6000E9456001B
:0203EA00089574
:0203EC00089572
:0203EE00089570
:1003F00053504920536C6176652052656365697678
:1004000065722052656164790D0A0054696D653A20
:100410002000207C20446174653A20002F32300097
:030420000D0A00C2
:00000001FF
